:10000000020082C00078B10000D8FCD00022C000FD
:10001000C001792D78A6D8FED9FADAF6D001D00041
:1000200022D293120003C29322D291020033C291D2
:10003000020033A2E792B5A2E692B4A2E592B3A27F
:10004000E492B2120021A2E392B5A2E292B4A2E13C
:1000500092B3A2E092B212002122C293C2927433F0
:1000600012002E743312002E743212002E742812D5
:10007000002E740C12002E740112002E7A0212004F
:100080000E2275817F12005A748012002E744D1258
:100090000029748112002E746112002974821200EA
:1000A0002E7472120029748312002E746B120029B0
:1000B000748412002E746F120029748612002E743C
:1000C0004A120029748712002E7475120029748850
:1000D00012002E7472120029748912002E74691293
:1000E0000029748A12002E7473120029748B120076
:1000F0002E7469120029748C12002E746312002968
:1001000074C012002E743112002974C112002E74B2
:100110003412002974C212002E743412002974C3E0
:1001200012002E743612002974C412002E7432127A
:10013000002974C512002E743412002974C61200EE
:100140002E743812002974C712002E743012002940
:0201500080FE2F
:00000001FF
